:100000000C9434000C9449000C9449000C94490061
:100010000C9449000C9449000C9449000C9449003C
:100020000C9449000C9449000C9449000C9449002C
:100030000C9449000C9449000C9449000C9449001C
:100040000C9449000C9449000C9449000C9449000C
:100050000C9449000C9449000C9449000C944900FC
:100060000C9449000C94490011241FBECFEFD8E036
:10007000DEBFCDBF11E0A0E0B1E0E6E1F1E002C0FB
:1000800005900D92A630B107D9F70E944B000C9451
:1000900089000C940000CF93DF93CDB7DEB728978B
:1000A0000FB6F894DEBF0FBECDBF209A26E0E0E089
:1000B000F1E0CE010196DC0101900D922A95E1F765
:1000C00024E0288728E02F832F813885FC010190C8
:1000D00000000000000000000000289A069450F084
:1000E00000000000000028980000000000002A9591
:1000F00079F70AC0000000000000000000000000C6
:100100002A95289829F70000019027E03A9529F7C9
:06011000DBCFF894FFCFE5
:06011600FFFFFF000000E6
:00000001FF
