:100000000C9434000C9449000C9449000C94490061
:100010000C9449000C9449000C9449000C9449003C
:100020000C9449000C9449000C9449000C9449002C
:100030000C9449000C9449000C9449000C9449001C
:100040000C9449000C9449000C9449000C9449000C
:100050000C9449000C9449000C9449000C944900FC
:100060000C9449000C94490011241FBECFEFD8E036
:10007000DEBFCDBF11E0A0E0B1E0E8E4F2E002C0F5
:1000800005900D92A03CB107D9F70E94FE000C9498
:1000900022010C9400000F931F93FC0160834183A5
:1000A000649FA001112453834283358324831783E3
:1000B00006831F910F910895FF920F931F93CF9383
:1000C000DF93DC0111968C911197882309F45FC0AE
:1000D00000E010E0C0E0D0E0C8012C9130E0029FC9
:1000E000A001039F500D129F500D11241696ED9103
:1000F000FC911797E40FF51FF080A901440F551FDD
:10010000420F531F41505109141615060CF560E0BB
:1001100070E016964D915C911797829FF001839F36
:10012000F00D929FF00D1124E60FF71FE40FF51F5D
:10013000218120836F5F7F4F2C9130E0A901440F14
:10014000551F420F531F41505109641775070CF397
:100150002196C29FC001C39F900DD29F900D112484
:100160000197FC01EE0FFF1F8E0F9F1F1696ED915A
:10017000FC911797E80FF91FF0820D5F1F4F119642
:100180008C91119790E0C817D9070CF4A5CFDF9197
:10019000CF911F910F91FF900895F89488E0FB0193
:1001A0000190000000000000000000005F9A000CB9
:1001B00058F00000000000005F9800000000000000
:1001C00000008A9571F70AC00000000000000000DE
:1001D000000000008A955F9821F70000019088E0F8
:1001E0004A9521F778940895FC014281242F220F2B
:1001F000420F668177810E94CD000895CF93DF93EF
:10020000CDB7DEB728970FB6F894DEBF0FBECDBFCF
:100210008AB181688AB900E011E020E030E048E06E
:1002200068E0CE0101960E944B00CE0101960E942B
:10023000F400CE0101960E945C00CE0101960E945E
:08024000F400F7CFF894FFCFA2
:100248000000000000000000000000000A0A0A0088
:100258000000000000000000000000000000000096
:10026800000000000A0A0A0A0A0A0000000000004A
:100278000000000000000000000000000A0A0A0A4E
:100288000A0A0A0A0A0000000A0A0A0A0A0A0A0AE4
:100298000A0A0A0A0A0A0A0A0A0A0A0A0A0A0A0AB6
:1002A8000A0A0A0A0A0A0A0A0A0A0A0A0A0A0A0AA6
:1002B8000A0A0A0A0A0A0A0A0000000000000000E6
:1002C800000000000A0A0A0A0A0A0A0A0A000000CC
:1002D8000000000000000000000000000A0A0A0AEE
:1002E8000A0A0000000000000000000000000000F2
:1002F800000000000A0A0A000000000000000000D8
:00000001FF
